:020000040800F2
:10000000600600200D020008150200081702000813
:10001000190200081B0200081D0200080000000071
:100020000000000000000000000000001F020008A7
:100030002102000800000000230200082502000839
:1000400027020008270200082702000827020008EC
:1000500027020008270200082702000827020008DC
:1000600027020008270200082702000827020008CC
:1000700027020008270200082702000827020008BC
:1000800027020008270200082702000827020008AC
:10009000270200082702000827020008270200089C
:1000A000270200082702000827020008270200088C
:1000B00027020008270200080000000027020008AD
:1000C00027020008000000000000000027020008CE
:1000D000000000002702000827020008270200088D
:1000E00027020008270200080000000000000000AE
:1000F0000000000000000000000000000000000000
:1001000000000000000000000000000000000000EF
:10011000000000000000000027020008270200087D
:1001200000000000000000000000000000000000CF
:1001300000000000000000000000000000000000BF
:10014000270200082702000800000000000000004D
:10015000000000000000000000000000000000009F
:10016000000000000000000000000000000000008F
:10017000000000000000000000000000000000007F
:10018000000000002702000800F002F800F02EF83E
:100190000AA090E8000C82448344AAF10107DA45E2
:1001A00001D100F023F8AFF2090EBAE80F0013F006
:1001B000010F18BFFB1A43F001031847C8020000E3
:1001C000D80200000023002400250026103A28BF92
:1001D00078C1FBD8520728BF30C148BF0B607047B9
:1001E0001FB500F041F91FBD10B510BD00F036F885
:1001F0001146FFF7F5FF00F0D7F800F054F803B40C
:10020000FFF7F2FF03BC00F057F8000009488047F1
:1002100009480047FEE7FEE7FEE7FEE7FEE7FEE7E8
:10022000FEE7FEE7FEE7FEE704480549054A064B00
:1002300070470000C9020008890100086000002022
:1002400060060020600200206002002070477047B6
:100250007047000000487047000000207546FFF717
:10026000F9FFAE4605006946534620F00700854673
:1002700018B020B5FFF7D8FFBDE820404FF00006CA
:100280004FF000074FF000084FF0000BAC46ACE811
:10029000C009ACE8C009ACE8C009ACE8C00921F06D
:1002A00007018D46704710B50446AFF30080204625
:1002B000BDE81040FFF7A3BF01491820ABBEFEE721
:1002C00026000200704700004EF68850CEF2000073
:1002D000016841F47001016070470000B0F800C08F
:1002E000438803FB0CF3A3B1D2F804C0406849680B
:1002F000021F0439ACF1040092ED010A91ED011ADC
:10030000043230EE010A043180ED010A0430013B71
:10031000F2D10020704700002DE9F04F81B0436812
:10032000B1F802904688D1F804E05268B0F800A015
:100330009FED1C0AA3F1040C4FEA86084FEA8905D9
:100340004FF0000B009204E0CB44BAF1010AC44420
:1003500023D00098724600EB8B04494606E000BFAC
:10036000A4EC011A013902F10402EDD0002EB0EE26
:10037000401AF5D0174663463046B0EE401A00BF2B
:1003800093ED012A97ED003A043322EE032A31EE71
:10039000021A01382F44F3D1E2E7002001B0BDE892
:1003A000F08F00BF00000000ACB04FF07E51002085
:1003B0001C91CDE92001CDE92610CDE92A014FF0AD
:1003C00004111A911CA91B914DF20B714CF6CD42F0
:1003D000C3F6A33114ABC3F6CC52CDE9121007C358
:1003E0000421C0F20201109112A911910021C4F25E
:1003F000A0111D90CDE91E20CDE92202CDE92400F7
:10040000CDE92800CDE91700CDE90C000E90CDE92B
:100410000600CDE90801CDE902000220199204226C
:10042000C0F201000F91C0F201020CAB06A90090CE
:1004300002A80DF168080AAD10AE6F4604AC0A922E
:100440000B93049205910190404629462A46FFF7F6
:1004500063FF304639462246FFF75EFF28462146B5
:100460002A46FFF73BFFEFE7F1EE100A4FF6FF7168
:10047000C0F2C03120EA010040F04070E1EE100A05
:10048000704700009404000800000020600600008F
:04049000C40100089B
:040000050800018965
:00000001FF
