:020000040800F2
:1000000078060020290200083102000833020008A7
:10001000350200083702000839020008000000001D
:100020000000000000000000000000003B0200088B
:100030003D020008000000003F02000841020008E5
:10004000430200084302000843020008430200087C
:10005000430200084302000843020008430200086C
:10006000430200084302000843020008430200085C
:10007000430200084302000843020008430200084C
:10008000430200084302000843020008430200083C
:10009000430200084302000843020008430200082C
:1000A000430200084302000843020008430200081C
:1000B0004302000843020008000000004302000859
:1000C0004302000800000000000000004302000896
:1000D0000000000043020008430200084302000839
:1000E0004302000843020008000000000000000076
:1000F0000000000000000000000000000000000000
:1001000000000000000000000000000000000000EF
:100110000000000000000000430200084302000845
:1001200000000000000000000000000000000000CF
:1001300000000000000000000000000000000000BF
:100140004302000843020008000000000000000015
:10015000000000000000000000000000000000009F
:10016000000000000000000000000000000000008F
:10017000000000000000000000000000000000007F
:10018000000000004302000800F002F800F03CF814
:100190000AA090E8000C82448344AAF10107DA45E2
:1001A00001D100F031F8AFF2090EBAE80F0013F0F8
:1001B000010F18BFFB1A43F001031847FC080000A9
:1001C0001C090000103A24BF78C878C1FAD8520739
:1001D00024BF30C830C144BF04680C6070470000C1
:1001E0000023002400250026103A28BF78C1FBD840
:1001F000520728BF30C148BF0B6070471FB500F0E1
:100200002EFC1FBD10B510BD00F05CF81146FFF7C5
:10021000F5FF00F091FA00F07AF803B4FFF7F2FF6F
:1002200003BC00F07DF800000948804709480047FA
:10023000FEE7FEE7FEE7FEE7FEE7FEE7FEE7FEE796
:10024000FEE7FEE704480549054A064B70470000F3
:10025000310300088901000878000020780600209A
:1002600078020020780200204FF0000200B513460B
:1002700094469646203922BFA0E80C50A0E80C50C6
:10028000B1F12001BFF4F7AF090728BFA0E80C5077
:1002900048BF0CC05DF804EB890028BF40F8042B70
:1002A00008BF704748BF20F8022B11F0804F18BFDD
:1002B00000F8012B7047704770477047004870473F
:1002C000080000207546FFF7F9FFAE4605006946B5
:1002D000534620F00700854618B020B5FFF7B2FF5F
:1002E000BDE820404FF000064FF000074FF0000837
:1002F0004FF0000BAC46ACE8C009ACE8C009ACE874
:10030000C009ACE8C00921F007018D46704710B55F
:100310000446AFF300802046BDE81040FFF77DBFE4
:1003200001491820ABBEFEE726000200704700001E
:100330004EF68850CEF20000016841F47001016071
:100340007047000080B500F005F800F00BF800F0F1
:1003500011F880BD4EF20010CEF200004FF0805137
:10036000016070474EF21C40CEF200001021017077
:10037000704700004EF28020CEF200004FF0805116
:1003800001607047B0F800C0438803FB0CF3A3B1D1
:10039000D2F804C040684968021F0439ACF1040077
:1003A00092ED010A91ED011A043230EE010A043196
:1003B00080ED010A0430013BF2D1002070470000BB
:1003C0002DE9F04F8BB04968D0F804B00191018855
:1003D000B0F80280049111B304996FF00300019DFD
:1003E0008F0000EB810A00244FF07E59002604E0C4
:1003F0000434043EA742054611D024B128462146C4
:10040000FFF732FF25442846A24540F8049BEFD071
:100410000AEB0601FFF728FFE8193044E8E7B8F1D6
:10042000000FCDF800B000F0ED80019A5B4602EBC2
:100430008801C1F1000A042101EB88010391191F11
:10044000DDF810E003EB880C0A911946043A4FEAF4
:10045000880BACF104000992002374464646002242
:100460000D4602921BE000BFDDF81CC003990A9AFA
:10047000089D069CDDF814A08C440A4408440999A0
:10048000DDF810E00435013E03F10103A4F101049D
:10049000AAEB0B0A59440A92099100F0B98003FBB8
:1004A00008F105EB810999ED000A0895B5EE400ABF
:1004B000F1EE10FACDE9064C32D1AEEB0301022980
:1004C0002ED30121002502460CEB050797ED001AFB
:1004D000B5EE401AF1EE10FA06D101315D448C42BE
:1004E0005A44F1D11CE000BF0A99A5EB0A0C002583
:1004F00052F8047F51F8044F0135AE4214600F608A
:10050000F6D1099AACF10401474600BF51F8045FE7
:1005100052F8044F013F0C601560F7D101210291A0
:10052000B5EE400AF1EE10FA03D10299012940F02C
:10053000958099ED000A0A9AA8EB0309002100BFF3
:1005400092ED011A013181EE001A8E4282ED011AFC
:1005500002F10402F4D1099A414600BF92ED011A5A
:10056000013981EE001A82ED011A02F10402F5D17F
:10057000BEF1000FCDF814A03FF476AFF446089911
:10058000DDF804E04FF0000A0CE000BF01EB890247
:100590000EEB880E02EB8301BCF1010C0AF1010A9B
:1005A0003FF462AF9A45F1D091ED000A0A9F0A1F0D
:1005B000002100BF97ED011A92ED012A20EE011AE9
:1005C000151D32EE411A0131043782ED011A8E42B7
:1005D0002A46EFD1099C2A1DAEF10405414600BF11
:1005E00094ED011A95ED012A20EE011A2F1D32EE2D
:1005F000411A043485ED011A01393D46F0D107F165
:10060000040EC7E79FED180A0020DDF810E0029005
:10061000B5EE400AF1EE10FA4FF000001FD102993A
:1006200001291CD008FB0EF14FF000004FF0000232
:1006300069B1009B93ED000AB5EE400AF1EE10FAA5
:1006400005D10132914203F10403F3D10A468A42F3
:1006500008BF6FF004000BB0BDE8F08FFB2040B284
:100660000BB0BDE8F08F00BF000000002DE9F04F97
:1006700081B04368B1F802904688D1F804E052682E
:10068000B0F800A09FED1C0AA3F1040C4FEA860805
:100690004FEA89054FF0000B009204E0CB44BAF119
:1006A000010AC44423D00098724600EB8B044946EB
:1006B00006E000BFA4EC011A013902F10402EDD0FA
:1006C000002EB0EE401AF5D0174663463046B0EE25
:1006D000401A00BF93ED012A97ED003A043322EE51
:1006E000032A31EE021A01382F44F3D1E2E7002049
:1006F00001B0BDE8F08F00BF00000000B0F800C0FE
:10070000438803FB0CF3A3B1D2F804C040684968E6
:10071000021F0439ACF1040092ED010A91ED011AB7
:10072000043230EE410A043180ED010A0430013B0D
:10073000F2D1002070470000ADF5527DFFF702FEB8
:100740004CF6CD40C2A962B6C3F6CC50C191B8A94F
:100750004FF07E5B4FF0000881E80109BDA9CDE9AB
:10076000C408CDE9C88081E80109CDE9AA08CDE92E
:10077000AC800420B0A9C0F20200AF914DF20B7121
:10078000A490A6A8C3F6A331A5900020CDE9A61891
:10079000CDE9A881C4F2A0100421A390C0F2010108
:1007A000A0AACDE99C80CDE9968094A882AC4FF0B8
:1007B00004199E919F9298919AAA929193902046A3
:1007C0004021CDF808B3CDF80C83CDE9C68BCDE937
:1007D000CA88CDE9CCB8CDE9CE88CDE9D08BCDF8AB
:1007E0000093CDE9B0B8CDE9B288CDE9B48BCDE9BD
:1007F000B688CDE9BB88CDF8B892CDE9A088CDF810
:100800008882CDE99A889992CDE99488FFF72CFDEA
:100810000020C4F2A000CDE9809470AC8290879053
:100820004FF0804A20464021CDF830A2CDF844A2B6
:10083000FFF71AFD40F67820C0F60000CDE96E946F
:1008400090E8DE00D0E906500DF5CC7CCDE96C5087
:100850000220C0F20400649066A8659040F69820DB
:10086000C0F600008CE8DE0090E88E00D0E9046558
:10087000D0E906400DF5B87CCDE962405CA88CE873
:100880008E005B904FF0021056A9CDE960650425FB
:10089000549055914E9050A948904AA838ACC0F257
:1008A00002054F914990204640215A95CDE958883C
:1008B000CDE95688CDE95288CDE95088CDE94AA8DE
:1008C000CDE94C8AFFF7D0FCCDE9369426AC204622
:1008D0004021CDF8E0B0CDF8F4B0CDF808B1CDF8B6
:1008E0001CB1FFF7C1FC0220C0F20100209022A938
:1008F0001C901890149016A8CDE9249421911EA95B
:1009000015900CA840F200091D911AA90B9002A89D
:10091000C2F2000980ACCDF898B0CDF8ACB0CDF8FB
:10092000C0B0CDF8D4B0CDE92288CDE91E88CDE99C
:100930001A881991CDE9168829460A9500950190E3
:1009400099F800000028FBD040F2680040F26C01EA
:10095000C2F20000C2F20001006809680DF540789B
:10096000CDE91A0140F2700040F27401C2F20000B9
:10097000C2F20001006809680DF51E7A92AECDE959
:100980001601404651463246FFF770FE0DF5187BC2
:10099000A4A818A95A46FFF769FE304659465246A0
:1009A000FFF7F0FC404621462246FFF75FFE204657
:1009B000AEA92246FFF75AFE20466EA92246FFF74F
:1009C000E1FC64AE1CAF304651463A46FFF74EFE9E
:1009D0000DF1800814A839464246FFF78FFE54AF48
:1009E000304621463A46FFF741FE5AAD3846294681
:1009F0003A46FFF73BFE384648A93A46FFF7C2FCA5
:100A000038464EAF3946FFF7DBFC29466D46204697
:100A10002A46FFF72BFE28460AAD39462A46FFF73D
:100A200025FE284641465A46FFF720FE58465146C5
:100A30005246FFF7A7FC284624AD31462A46FFF769
:100A400015FE36A829462A46FFF758FE28462146B5
:100A50002246FFF70BFE002089F8000070E7F1EE58
:100A6000100A4FF6FF71C0F2C03120EA010040F0D9
:100A70004070E1EE100A70470000803F0000000067
:100A80000000000000000000000000000000803FA7
:100A900000000000000000000000803F0000000097
:100AA000000000000000803F000000000000000087
:100AB0000000000000000000D80A0008000000202C
:100AC00008000000C4010008E00A00080800002037
:100AD00070060000E00100080100000000000000B6
:040000050800018965
:00000001FF
