:020000040800F2
:10000000600600200D020008150200081702000813
:10001000190200081B0200081D0200080000000071
:100020000000000000000000000000001F020008A7
:100030002102000800000000230200082502000839
:1000400027020008270200082702000827020008EC
:1000500027020008270200082702000827020008DC
:1000600027020008270200082702000827020008CC
:1000700027020008270200082702000827020008BC
:1000800027020008270200082702000827020008AC
:10009000270200082702000827020008270200089C
:1000A000270200082702000827020008270200088C
:1000B00027020008270200080000000027020008AD
:1000C00027020008000000000000000027020008CE
:1000D000000000002702000827020008270200088D
:1000E00027020008270200080000000000000000AE
:1000F0000000000000000000000000000000000000
:1001000000000000000000000000000000000000EF
:10011000000000000000000027020008270200087D
:1001200000000000000000000000000000000000CF
:1001300000000000000000000000000000000000BF
:10014000270200082702000800000000000000004D
:10015000000000000000000000000000000000009F
:10016000000000000000000000000000000000008F
:10017000000000000000000000000000000000007F
:10018000000000002702000800F002F800F02EF83E
:100190000AA090E8000C82448344AAF10107DA45E2
:1001A00001D100F023F8AFF2090EBAE80F0013F006
:1001B000010F18BFFB1A43F001031847480800005D
:1001C000580800000023002400250026103A28BF0C
:1001D00078C1FBD8520728BF30C148BF0B607047B9
:1001E0001FB500F0E1FB1FBD10B510BD00F05CF8BD
:1001F0001146FFF7F5FF00F071FA00F07AF803B44A
:10020000FFF7F2FF03BC00F07DF8000009488047CB
:1002100009480047FEE7FEE7FEE7FEE7FEE7FEE7E8
:10022000FEE7FEE7FEE7FEE704480549054A064B00
:1002300070470000150300088901000860000020D5
:100240006006002060020020600200204FF00002E3
:1002500000B5134694469646203922BFA0E80C50BC
:10026000A0E80C50B1F12001BFF4F7AF090728BF97
:10027000A0E80C5048BF0CC05DF804EB890028BF13
:1002800040F8042B08BF704748BF20F8022B11F03C
:10029000804F18BF00F8012B7047704770477047B8
:1002A00000487047000000207546FFF7F9FFAE4692
:1002B00005006946534620F00700854618B020B572
:1002C000FFF7B2FFBDE820404FF000064FF00007F7
:1002D0004FF000084FF0000BAC46ACE8C009ACE8AA
:1002E000C009ACE8C009ACE8C00921F007018D469F
:1002F000704710B50446AFF300802046BDE81040BB
:10030000FFF77DBF01491820ABBEFEE726000200C3
:10031000704700004EF68850CEF20000016841F4AC
:100320007001016070470000B0F800C0438803FB13
:100330000CF3A3B1D2F804C040684968021F043925
:10034000ACF1040092ED010A91ED011A043230EE95
:10035000010A043180ED010A0430013BF2D1002092
:10036000704700002DE9F04F8BB04968D0F804B019
:1003700001910188B0F80280049111B304996FF0E3
:100380000300019D8F0000EB810A00244FF07E598D
:10039000002604E00434043EA742054611D024B1EF
:1003A00028462146FFF752FF25442846A24540F83B
:1003B000049BEFD00AEB0601FFF748FFE819304431
:1003C000E8E7B8F1000FCDF800B000F0ED80019A39
:1003D0005B4602EB8801C1F1000A042101EB8801B0
:1003E0000391191FDDF810E003EB880C0A91194600
:1003F000043A4FEA880BACF10400099200237446DA
:10040000464600220D4602921BE000BFDDF81CC0EC
:1004100003990A9A089D069CDDF814A08C440A44AE
:1004200008440999DDF810E00435013E03F10103A9
:10043000A4F10104AAEB0B0A59440A92099100F0B5
:10044000B98003FB08F105EB810999ED000A0895D5
:10045000B5EE400AF1EE10FACDE9064C32D1AEEB22
:10046000030102292ED30121002502460CEB0507CA
:1004700097ED001AB5EE401AF1EE10FA06D10131EF
:100480005D448C425A44F1D11CE000BF0A99A5EBAF
:100490000A0C002552F8047F51F8044F0135AE4292
:1004A00014600F60F6D1099AACF10401474600BF11
:1004B00051F8045F52F8044F013F0C601560F7D10A
:1004C00001210291B5EE400AF1EE10FA03D1029932
:1004D000012940F0958099ED000A0A9AA8EB0309DA
:1004E000002100BF92ED011A013181EE001A8E4207
:1004F00082ED011A02F10402F4D1099A414600BFCB
:1005000092ED011A013981EE001A82ED011A02F111
:100510000402F5D1BEF1000FCDF814A03FF476AF80
:10052000F4460899DDF804E04FF0000A0CE000BF43
:1005300001EB89020EEB880E02EB8301BCF1010C8A
:100540000AF1010A3FF462AF9A45F1D091ED000A39
:100550000A9F0A1F002100BF97ED011A92ED012AA0
:1005600020EE011A151D32EE411A0131043782EDD9
:10057000011A8E422A46EFD1099C2A1DAEF10405CC
:10058000414600BF94ED011A95ED012A20EE011AB3
:100590002F1D32EE411A043485ED011A01393D4612
:1005A000F0D107F1040EC7E79FED180A0020DDF82F
:1005B00010E00290B5EE400AF1EE10FA4FF00000A4
:1005C0001FD1029901291CD008FB0EF14FF0000049
:1005D0004FF0000269B1009B93ED000AB5EE400AAE
:1005E000F1EE10FA05D10132914203F10403F3D187
:1005F0000A468A4208BF6FF004000BB0BDE8F08FD6
:10060000FB2040B20BB0BDE8F08F00BF000000003F
:100610002DE9F04F81B04368B1F802904688D1F8D7
:1006200004E05268B0F800A09FED1C0AA3F1040C8E
:100630004FEA86084FEA89054FF0000B009204E06C
:10064000CB44BAF1010AC44423D00098724600EBAF
:100650008B04494606E000BFA4EC011A013902F1FF
:100660000402EDD0002EB0EE401AF5D017466346D6
:100670003046B0EE401A00BF93ED012A97ED003AE4
:10068000043322EE032A31EE021A01382F44F3D14B
:10069000E2E7002001B0BDE8F08F00BF00000000DD
:1006A000B0F800C0438803FB0CF3A3B1D2F804C038
:1006B00040684968021F0439ACF1040092ED010A58
:1006C00091ED011A043230EE410A043180ED010A45
:1006D0000430013BF2D1002070470000ADF54C7DA5
:1006E0004CF6CD40BCA9C3F6CC50BB91B2A94FF09B
:1006F0007E5B002581E82108B7A981E82108AAA925
:10070000CDE9BE05CDE9C250A9914DF20B71CDE9FD
:10071000A405CDE9A650A0A8C3F6A3319F90002060
:10072000CDE9A015CDE9A251C4F2A010042140F2F8
:1007300004089D90C0F20101CDE9965094A882ACC6
:100740004FF00419C0F2020898919AAA92919390DE
:1007500020464021CDF8F0B2BD95CDE9C05BCDE992
:10076000C455CDE9C6B5CDE9C855CDE9CA5BCDF8CC
:10077000E892CDE9AAB5CDE9AC55CDE9AE5BCDE9BE
:10078000B055CDE9B555CDF8A092CDF87882CDE938
:100790009A559C959992CDE99455FFF757FD002005
:1007A000C4F2A000CDE9809470AC829087904FF0A5
:1007B000804A20464021CDF830A2CDF844A2FFF770
:1007C00045FD40F6C410C0F60000CDE96E9490E8F7
:1007D0009E00D0E9056CC0690DF5CC7E6D900220BD
:1007E000C0F20400649066A8659040F6E410C0F67C
:1007F00000008EE89E00CDE96B6C90E88E00D0E999
:100800000464D0E906C00DF5B87ECDE962C05CA8ED
:100810008EE88E005B904FF0021056A9CDE960641F
:10082000549055914E9050A948904AA838AC4F9199
:10083000499020464021CDF86881CDE95855CDE951
:100840005655CDE95255CDE95055CDE94AA5CDE9EA
:100850004C5AFFF7FBFCCDE9369426AC20464021EC
:10086000CDF8E0B0CDF8F4B0CDF808B1CDF81CB1BA
:10087000FFF7ECFC0220C0F20100209022A91C909E
:100880001890149016A821911EA915900CA81D91DE
:100890001AA9CDF828800B90CDF8008002A80DF59C
:1008A000187880AF0DF5A87ACDF898B0CDF8ACB037
:1008B000CDF8C0B0CDF8D4B0CDE92494CDE922551F
:1008C000CDE91E55CDE91A551991CDE9165501907E
:1008D0000DF53A7B584641464246FFF799FE0DF525
:1008E00012799EA818A94A46FFF792FE404649464B
:1008F0004246FFF719FD584639463A46FFF788FE4B
:100900003846A8A93A46FFF783FE38466EA93A460C
:10091000FFF70AFD64AE1CAC304641462246FFF7A5
:1009200077FE0DF1800B14A821465A46FFF7B8FE5A
:10093000304639465246FFF76BFE5AAD50462946BF
:100940005246FFF765FE504648A95246FFF7ECFCB9
:100950004EAC50462146FFF705FD29466D46384608
:100960002A46FFF755FE21460AAC28462246FFF7E5
:100970004FFE204659464A46FFF74AFE4846414642
:100980004246FFF7D1FC204624AC31462246FFF711
:100990003FFE36A821462246FFF782FE2046394612
:1009A0003A46FFF735FE93E7F1EE100A4FF6FF7176
:1009B000C0F2C03120EA010040F04070E1EE100AC0
:1009C000704700000000803F0000000000000000B1
:1009D00000000000000000000000803F0000000058
:1009E000000000000000803F000000000000000048
:1009F0000000803F00000000000000000000000038
:100A000000000000140A000800000020600600003A
:040A1000C401000815
:040000050800018965
:00000001FF
