:020000040800F2
:10000000600600200D020008150200081702000813
:10001000190200081B0200081D0200080000000071
:100020000000000000000000000000001F020008A7
:100030002102000800000000230200082502000839
:1000400027020008270200082702000827020008EC
:1000500027020008270200082702000827020008DC
:1000600027020008270200082702000827020008CC
:1000700027020008270200082702000827020008BC
:1000800027020008270200082702000827020008AC
:10009000270200082702000827020008270200089C
:1000A000270200082702000827020008270200088C
:1000B00027020008270200080000000027020008AD
:1000C00027020008000000000000000027020008CE
:1000D000000000002702000827020008270200088D
:1000E00027020008270200080000000000000000AE
:1000F0000000000000000000000000000000000000
:1001000000000000000000000000000000000000EF
:10011000000000000000000027020008270200087D
:1001200000000000000000000000000000000000CF
:1001300000000000000000000000000000000000BF
:10014000270200082702000800000000000000004D
:10015000000000000000000000000000000000009F
:10016000000000000000000000000000000000008F
:10017000000000000000000000000000000000007F
:10018000000000002702000800F002F800F02EF83E
:100190000AA090E8000C82448344AAF10107DA45E2
:1001A00001D100F023F8AFF2090EBAE80F0013F006
:1001B000010F18BFFB1A43F0010318473C01000070
:1001C0004C0100000023002400250026103A28BF1F
:1001D00078C1FBD8520728BF30C148BF0B607047B9
:1001E0001FB500F07CF81FBD10B510BD00F036F84B
:1001F0001146FFF7F5FF00F071F800F054F803B472
:10020000FFF7F2FF03BC00F057F8000009488047F1
:1002100009480047FEE7FEE7FEE7FEE7FEE7FEE7E8
:10022000FEE7FEE7FEE7FEE704480549054A064B00
:1002300070470000C9020008890100086000002022
:1002400060060020600200206002002070477047B6
:100250007047000000487047000000207546FFF717
:10026000F9FFAE4605006946534620F00700854673
:1002700018B020B5FFF7D8FFBDE820404FF00006CA
:100280004FF000074FF000084FF0000BAC46ACE811
:10029000C009ACE8C009ACE8C009ACE8C00921F06D
:1002A00007018D46704710B50446AFF30080204625
:1002B000BDE81040FFF7A3BF01491820ABBEFEE721
:1002C00026000200704700004EF68850CEF2000073
:1002D000016841F47001016070470000FEE7F1EE33
:1002E000100A4FF6FF71C0F2C03120EA010040F061
:1002F0004070E1EE100A704708030008000000207B
:0803000060060000C4010008C2
:040000050800018965
:00000001FF
